{
  "address": "0x2672fC2652fC5e1c882F277526a294239077C51d",
  "abi": [
    {
      "inputs": [
        {
          "internalType": "string",
          "name": "name",
          "type": "string"
        },
        {
          "internalType": "string",
          "name": "symbol",
          "type": "string"
        },
        {
          "internalType": "contract IPublicSharedMetadata",
          "name": "_sharedMetadata",
          "type": "address"
        }
      ],
      "stateMutability": "nonpayable",
      "type": "constructor"
    },
    {
      "anonymous": false,
      "inputs": [
        {
          "indexed": true,
          "internalType": "address",
          "name": "owner",
          "type": "address"
        },
        {
          "indexed": true,
          "internalType": "address",
          "name": "approved",
          "type": "address"
        },
        {
          "indexed": true,
          "internalType": "uint256",
          "name": "tokenId",
          "type": "uint256"
        }
      ],
      "name": "Approval",
      "type": "event"
    },
    {
      "anonymous": false,
      "inputs": [
        {
          "indexed": true,
          "internalType": "address",
          "name": "owner",
          "type": "address"
        },
        {
          "indexed": true,
          "internalType": "address",
          "name": "operator",
          "type": "address"
        },
        {
          "indexed": false,
          "internalType": "bool",
          "name": "approved",
          "type": "bool"
        }
      ],
      "name": "ApprovalForAll",
      "type": "event"
    },
    {
      "anonymous": false,
      "inputs": [
        {
          "indexed": true,
          "internalType": "address",
          "name": "previousOwner",
          "type": "address"
        },
        {
          "indexed": true,
          "internalType": "address",
          "name": "newOwner",
          "type": "address"
        }
      ],
      "name": "OwnershipTransferred",
      "type": "event"
    },
    {
      "anonymous": false,
      "inputs": [
        {
          "indexed": true,
          "internalType": "address",
          "name": "from",
          "type": "address"
        },
        {
          "indexed": true,
          "internalType": "address",
          "name": "to",
          "type": "address"
        },
        {
          "indexed": true,
          "internalType": "uint256",
          "name": "tokenId",
          "type": "uint256"
        }
      ],
      "name": "Transfer",
      "type": "event"
    },
    {
      "anonymous": false,
      "inputs": [
        {
          "indexed": true,
          "internalType": "uint256",
          "name": "tokenId",
          "type": "uint256"
        },
        {
          "indexed": false,
          "internalType": "address",
          "name": "recipient",
          "type": "address"
        },
        {
          "indexed": false,
          "internalType": "uint256",
          "name": "bps",
          "type": "uint256"
        }
      ],
      "name": "UpdatedRoyalty",
      "type": "event"
    },
    {
      "inputs": [
        {
          "internalType": "address",
          "name": "to",
          "type": "address"
        },
        {
          "internalType": "uint256",
          "name": "tokenId",
          "type": "uint256"
        }
      ],
      "name": "approve",
      "outputs": [],
      "stateMutability": "nonpayable",
      "type": "function"
    },
    {
      "inputs": [
        {
          "internalType": "address",
          "name": "owner",
          "type": "address"
        }
      ],
      "name": "balanceOf",
      "outputs": [
        {
          "internalType": "uint256",
          "name": "",
          "type": "uint256"
        }
      ],
      "stateMutability": "view",
      "type": "function"
    },
    {
      "inputs": [
        {
          "internalType": "uint256",
          "name": "tokenId",
          "type": "uint256"
        }
      ],
      "name": "burn",
      "outputs": [],
      "stateMutability": "nonpayable",
      "type": "function"
    },
    {
      "inputs": [
        {
          "internalType": "uint256",
          "name": "tokenId",
          "type": "uint256"
        }
      ],
      "name": "contentHash",
      "outputs": [
        {
          "internalType": "bytes32",
          "name": "",
          "type": "bytes32"
        }
      ],
      "stateMutability": "view",
      "type": "function"
    },
    {
      "inputs": [
        {
          "internalType": "uint256",
          "name": "tokenId",
          "type": "uint256"
        }
      ],
      "name": "contentURI",
      "outputs": [
        {
          "internalType": "string",
          "name": "",
          "type": "string"
        }
      ],
      "stateMutability": "view",
      "type": "function"
    },
    {
      "inputs": [
        {
          "internalType": "uint256",
          "name": "tokenId",
          "type": "uint256"
        }
      ],
      "name": "getApproved",
      "outputs": [
        {
          "internalType": "address",
          "name": "",
          "type": "address"
        }
      ],
      "stateMutability": "view",
      "type": "function"
    },
    {
      "inputs": [
        {
          "internalType": "address",
          "name": "owner",
          "type": "address"
        },
        {
          "internalType": "address",
          "name": "operator",
          "type": "address"
        }
      ],
      "name": "isApprovedForAll",
      "outputs": [
        {
          "internalType": "bool",
          "name": "",
          "type": "bool"
        }
      ],
      "stateMutability": "view",
      "type": "function"
    },
    {
      "inputs": [
        {
          "internalType": "address",
          "name": "to",
          "type": "address"
        },
        {
          "internalType": "string",
          "name": "contentUri",
          "type": "string"
        },
        {
          "internalType": "bytes32",
          "name": "_contentHash",
          "type": "bytes32"
        },
        {
          "internalType": "string",
          "name": "metadataContent",
          "type": "string"
        },
        {
          "internalType": "address",
          "name": "royaltyPayoutAddress",
          "type": "address"
        },
        {
          "internalType": "uint256",
          "name": "royaltyBPS",
          "type": "uint256"
        }
      ],
      "name": "mint",
      "outputs": [],
      "stateMutability": "nonpayable",
      "type": "function"
    },
    {
      "inputs": [],
      "name": "name",
      "outputs": [
        {
          "internalType": "string",
          "name": "",
          "type": "string"
        }
      ],
      "stateMutability": "view",
      "type": "function"
    },
    {
      "inputs": [],
      "name": "owner",
      "outputs": [
        {
          "internalType": "address",
          "name": "",
          "type": "address"
        }
      ],
      "stateMutability": "view",
      "type": "function"
    },
    {
      "inputs": [
        {
          "internalType": "uint256",
          "name": "tokenId",
          "type": "uint256"
        }
      ],
      "name": "ownerOf",
      "outputs": [
        {
          "internalType": "address",
          "name": "",
          "type": "address"
        }
      ],
      "stateMutability": "view",
      "type": "function"
    },
    {
      "inputs": [],
      "name": "renounceOwnership",
      "outputs": [],
      "stateMutability": "nonpayable",
      "type": "function"
    },
    {
      "inputs": [
        {
          "internalType": "uint256",
          "name": "",
          "type": "uint256"
        }
      ],
      "name": "royalities",
      "outputs": [
        {
          "internalType": "uint256",
          "name": "bps",
          "type": "uint256"
        },
        {
          "internalType": "address",
          "name": "receiver",
          "type": "address"
        }
      ],
      "stateMutability": "view",
      "type": "function"
    },
    {
      "inputs": [
        {
          "internalType": "uint256",
          "name": "tokenId",
          "type": "uint256"
        },
        {
          "internalType": "uint256",
          "name": "salePrice",
          "type": "uint256"
        }
      ],
      "name": "royaltyInfo",
      "outputs": [
        {
          "internalType": "address",
          "name": "receiver",
          "type": "address"
        },
        {
          "internalType": "uint256",
          "name": "royaltyAmount",
          "type": "uint256"
        }
      ],
      "stateMutability": "view",
      "type": "function"
    },
    {
      "inputs": [
        {
          "internalType": "address",
          "name": "from",
          "type": "address"
        },
        {
          "internalType": "address",
          "name": "to",
          "type": "address"
        },
        {
          "internalType": "uint256",
          "name": "tokenId",
          "type": "uint256"
        }
      ],
      "name": "safeTransferFrom",
      "outputs": [],
      "stateMutability": "nonpayable",
      "type": "function"
    },
    {
      "inputs": [
        {
          "internalType": "address",
          "name": "from",
          "type": "address"
        },
        {
          "internalType": "address",
          "name": "to",
          "type": "address"
        },
        {
          "internalType": "uint256",
          "name": "tokenId",
          "type": "uint256"
        },
        {
          "internalType": "bytes",
          "name": "_data",
          "type": "bytes"
        }
      ],
      "name": "safeTransferFrom",
      "outputs": [],
      "stateMutability": "nonpayable",
      "type": "function"
    },
    {
      "inputs": [
        {
          "internalType": "address",
          "name": "operator",
          "type": "address"
        },
        {
          "internalType": "bool",
          "name": "approved",
          "type": "bool"
        }
      ],
      "name": "setApprovalForAll",
      "outputs": [],
      "stateMutability": "nonpayable",
      "type": "function"
    },
    {
      "inputs": [
        {
          "internalType": "uint256",
          "name": "tokenId",
          "type": "uint256"
        },
        {
          "internalType": "address",
          "name": "newAddress",
          "type": "address"
        }
      ],
      "name": "setRoyaltyPayoutAddressForToken",
      "outputs": [],
      "stateMutability": "nonpayable",
      "type": "function"
    },
    {
      "inputs": [
        {
          "internalType": "bytes4",
          "name": "interfaceId",
          "type": "bytes4"
        }
      ],
      "name": "supportsInterface",
      "outputs": [
        {
          "internalType": "bool",
          "name": "",
          "type": "bool"
        }
      ],
      "stateMutability": "view",
      "type": "function"
    },
    {
      "inputs": [],
      "name": "symbol",
      "outputs": [
        {
          "internalType": "string",
          "name": "",
          "type": "string"
        }
      ],
      "stateMutability": "view",
      "type": "function"
    },
    {
      "inputs": [
        {
          "internalType": "uint256",
          "name": "tokenId",
          "type": "uint256"
        }
      ],
      "name": "tokenURI",
      "outputs": [
        {
          "internalType": "string",
          "name": "",
          "type": "string"
        }
      ],
      "stateMutability": "view",
      "type": "function"
    },
    {
      "inputs": [
        {
          "internalType": "address",
          "name": "from",
          "type": "address"
        },
        {
          "internalType": "address",
          "name": "to",
          "type": "address"
        },
        {
          "internalType": "uint256",
          "name": "tokenId",
          "type": "uint256"
        }
      ],
      "name": "transferFrom",
      "outputs": [],
      "stateMutability": "nonpayable",
      "type": "function"
    },
    {
      "inputs": [
        {
          "internalType": "address",
          "name": "newOwner",
          "type": "address"
        }
      ],
      "name": "transferOwnership",
      "outputs": [],
      "stateMutability": "nonpayable",
      "type": "function"
    }
  ],
  "transactionHash": "0xba86103dac946b92214271f4c928d6623c9941e90943f37dfc05464791a01e49",
  "args": [
    "Matthew Ball Metaverse Essays",
    "METAESSAY",
    "0x2a3245d54E5407E276c47f0C181a22bf90c797Ce"
  ],
  "solcInputHash": "af7e9c7460f0fd55b89727815b56b7e5",
  "bytecode": "0x60a06040523480156200001157600080fd5b5060405162003cd538038062003cd58339818101604052810190620000379190620002de565b8282620000596200004d620000cd60201b60201c565b620000d560201b60201c565b81600190805190602001906200007192919062000199565b5080600290805190602001906200008a92919062000199565b5050508073ffffffffffffffffffffffffffffffffffffffff1660808173ffffffffffffffffffffffffffffffffffffffff1660601b815250505050506200055e565b600033905090565b60008060009054906101000a900473ffffffffffffffffffffffffffffffffffffffff169050816000806101000a81548173ffffffffffffffffffffffffffffffffffffffff021916908373ffffffffffffffffffffffffffffffffffffffff1602179055508173ffffffffffffffffffffffffffffffffffffffff168173ffffffffffffffffffffffffffffffffffffffff167f8be0079c531659141344cd1fd0a4f28419497f9722a3daafe3b4186f6b6457e060405160405180910390a35050565b828054620001a79062000455565b90600052602060002090601f016020900481019282620001cb576000855562000217565b82601f10620001e657805160ff191683800117855562000217565b8280016001018555821562000217579182015b8281111562000216578251825591602001919060010190620001f9565b5b5090506200022691906200022a565b5090565b5b80821115620002455760008160009055506001016200022b565b5090565b6000620002606200025a84620003a1565b62000378565b9050828152602081018484840111156200027f576200027e62000524565b5b6200028c8482856200041f565b509392505050565b600081519050620002a58162000544565b92915050565b600082601f830112620002c357620002c26200051f565b5b8151620002d584826020860162000249565b91505092915050565b600080600060608486031215620002fa57620002f96200052e565b5b600084015167ffffffffffffffff8111156200031b576200031a62000529565b5b6200032986828701620002ab565b935050602084015167ffffffffffffffff8111156200034d576200034c62000529565b5b6200035b86828701620002ab565b92505060406200036e8682870162000294565b9150509250925092565b60006200038462000397565b90506200039282826200048b565b919050565b6000604051905090565b600067ffffffffffffffff821115620003bf57620003be620004f0565b5b620003ca8262000533565b9050602081019050919050565b6000620003e482620003ff565b9050919050565b6000620003f882620003d7565b9050919050565b600073ffffffffffffffffffffffffffffffffffffffff82169050919050565b60005b838110156200043f57808201518184015260208101905062000422565b838111156200044f576000848401525b50505050565b600060028204905060018216806200046e57607f821691505b60208210811415620004855762000484620004c1565b5b50919050565b620004968262000533565b810181811067ffffffffffffffff82111715620004b857620004b7620004f0565b5b80604052505050565b7f4e487b7100000000000000000000000000000000000000000000000000000000600052602260045260246000fd5b7f4e487b7100000000000000000000000000000000000000000000000000000000600052604160045260246000fd5b600080fd5b600080fd5b600080fd5b600080fd5b6000601f19601f8301169050919050565b6200054f81620003eb565b81146200055b57600080fd5b50565b60805160601c6137586200057d600039600061117a01526137586000f3fe608060405234801561001057600080fd5b506004361061014d5760003560e01c806370a08231116100c3578063b5004f011161007c578063b5004f011461039b578063b88d4fde146103cc578063c87b56dd146103e8578063e985e9c514610418578063f2fde38b14610448578063f3e0c290146104645761014d565b806370a08231146102ed578063715018a61461031d5780638da5cb5b1461032757806395d89b4114610345578063a22cb46514610363578063b2410c021461037f5761014d565b80632a55205a116101155780632a55205a1461020857806342842e0e1461023957806342966c68146102555780634af66fa2146102715780636352211e1461028d5780636e667c35146102bd5761014d565b806301ffc9a71461015257806306fdde0314610182578063081812fc146101a0578063095ea7b3146101d057806323b872dd146101ec575b600080fd5b61016c60048036038101906101679190612504565b610494565b6040516101799190612aab565b60405180910390f35b61018a61050e565b6040516101979190612b03565b60405180910390f35b6101ba60048036038101906101b591906125a7565b6105a0565b6040516101c79190612a1b565b60405180910390f35b6101ea60048036038101906101e591906124c4565b610625565b005b610206600480360381019061020191906122e9565b61073d565b005b610222600480360381019061021d9190612614565b61079d565b604051610230929190612a82565b60405180910390f35b610253600480360381019061024e91906122e9565b610850565b005b61026f600480360381019061026a91906125a7565b610870565b005b61028b600480360381019061028691906125d4565b6109bd565b005b6102a760048036038101906102a291906125a7565b610a47565b6040516102b49190612a1b565b60405180910390f35b6102d760048036038101906102d291906125a7565b610af9565b6040516102e49190612b03565b60405180910390f35b6103076004803603810190610302919061227c565b610ba1565b6040516103149190612d85565b60405180910390f35b610325610c59565b005b61032f610ce1565b60405161033c9190612a1b565b60405180910390f35b61034d610d0a565b60405161035a9190612b03565b60405180910390f35b61037d600480360381019061037891906123bf565b610d9c565b005b610399600480360381019061039491906123ff565b610f1d565b005b6103b560048036038101906103b091906125a7565b611088565b6040516103c3929190612da0565b60405180910390f35b6103e660048036038101906103e1919061233c565b6110cc565b005b61040260048036038101906103fd91906125a7565b61112e565b60405161040f9190612b03565b60405180910390f35b610432600480360381019061042d91906122a9565b611242565b60405161043f9190612aab565b60405180910390f35b610462600480360381019061045d919061227c565b6112d6565b005b61047e600480360381019061047991906125a7565b6113ce565b60405161048b9190612ac6565b60405180910390f35b600061049f826113ee565b8061050757507f9d86bea5000000000000000000000000000000000000000000000000000000007bffffffffffffffffffffffffffffffffffffffffffffffffffffffff1916827bffffffffffffffffffffffffffffffffffffffffffffffffffffffff1916145b9050919050565b60606001805461051d90613072565b80601f016020809104026020016040519081016040528092919081815260200182805461054990613072565b80156105965780601f1061056b57610100808354040283529160200191610596565b820191906000526020600020905b81548152906001019060200180831161057957829003601f168201915b5050505050905090565b60006105ab82611458565b6105ea576040517f08c379a00000000000000000000000000000000000000000000000000000000081526004016105e190612ca5565b60405180910390fd5b6005600083815260200190815260200160002060009054906101000a900473ffffffffffffffffffffffffffffffffffffffff169050919050565b600061063082610a47565b90508073ffffffffffffffffffffffffffffffffffffffff168373ffffffffffffffffffffffffffffffffffffffff1614156106a1576040517f08c379a000000000000000000000000000000000000000000000000000000000815260040161069890612d25565b60405180910390fd5b8073ffffffffffffffffffffffffffffffffffffffff166106c06114c4565b73ffffffffffffffffffffffffffffffffffffffff1614806106ef57506106ee816106e96114c4565b611242565b5b61072e576040517f08c379a000000000000000000000000000000000000000000000000000000000815260040161072590612c25565b60405180910390fd5b61073883836114cc565b505050565b61074e6107486114c4565b82611585565b61078d576040517f08c379a000000000000000000000000000000000000000000000000000000000815260040161078490612d45565b60405180910390fd5b610798838383611663565b505050565b600080600060076000868152602001908152602001600020604051806040016040529081600082015481526020016001820160009054906101000a900473ffffffffffffffffffffffffffffffffffffffff1673ffffffffffffffffffffffffffffffffffffffff1673ffffffffffffffffffffffffffffffffffffffff16815250509050806020015161271082600001518661083a9190612f24565b6108449190612ef3565b92509250509250929050565b61086b838383604051806020016040528060008152506110cc565b505050565b6108786114c4565b73ffffffffffffffffffffffffffffffffffffffff16610896610ce1565b73ffffffffffffffffffffffffffffffffffffffff16146108ec576040517f08c379a00000000000000000000000000000000000000000000000000000000081526004016108e390612cc5565b60405180910390fd5b6108f581611458565b610934576040517f08c379a000000000000000000000000000000000000000000000000000000000815260040161092b90612be5565b60405180910390fd5b61093c6114c4565b73ffffffffffffffffffffffffffffffffffffffff1661095b82610a47565b73ffffffffffffffffffffffffffffffffffffffff16146109b1576040517f08c379a00000000000000000000000000000000000000000000000000000000081526004016109a890612bc5565b60405180910390fd5b6109ba816118bf565b50565b6109c56114c4565b73ffffffffffffffffffffffffffffffffffffffff166109e3610ce1565b73ffffffffffffffffffffffffffffffffffffffff1614610a39576040517f08c379a0000000000000000000000000000000000000000000000000000000008152600401610a3090612cc5565b60405180910390fd5b610a4381836119d0565b5050565b6000806003600084815260200190815260200160002060009054906101000a900473ffffffffffffffffffffffffffffffffffffffff169050600073ffffffffffffffffffffffffffffffffffffffff168173ffffffffffffffffffffffffffffffffffffffff161415610af0576040517f08c379a0000000000000000000000000000000000000000000000000000000008152600401610ae790612c65565b60405180910390fd5b80915050919050565b6060600860008381526020019081526020016000206001018054610b1c90613072565b80601f0160208091040260200160405190810160405280929190818152602001828054610b4890613072565b8015610b955780601f10610b6a57610100808354040283529160200191610b95565b820191906000526020600020905b815481529060010190602001808311610b7857829003601f168201915b50505050509050919050565b60008073ffffffffffffffffffffffffffffffffffffffff168273ffffffffffffffffffffffffffffffffffffffff161415610c12576040517f08c379a0000000000000000000000000000000000000000000000000000000008152600401610c0990612c45565b60405180910390fd5b600460008373ffffffffffffffffffffffffffffffffffffffff1673ffffffffffffffffffffffffffffffffffffffff168152602001908152602001600020549050919050565b610c616114c4565b73ffffffffffffffffffffffffffffffffffffffff16610c7f610ce1565b73ffffffffffffffffffffffffffffffffffffffff1614610cd5576040517f08c379a0000000000000000000000000000000000000000000000000000000008152600401610ccc90612cc5565b60405180910390fd5b610cdf6000611a79565b565b60008060009054906101000a900473ffffffffffffffffffffffffffffffffffffffff16905090565b606060028054610d1990613072565b80601f0160208091040260200160405190810160405280929190818152602001828054610d4590613072565b8015610d925780601f10610d6757610100808354040283529160200191610d92565b820191906000526020600020905b815481529060010190602001808311610d7557829003601f168201915b5050505050905090565b610da46114c4565b73ffffffffffffffffffffffffffffffffffffffff168273ffffffffffffffffffffffffffffffffffffffff161415610e12576040517f08c379a0000000000000000000000000000000000000000000000000000000008152600401610e0990612ba5565b60405180910390fd5b8060066000610e1f6114c4565b73ffffffffffffffffffffffffffffffffffffffff1673ffffffffffffffffffffffffffffffffffffffff16815260200190815260200160002060008473ffffffffffffffffffffffffffffffffffffffff1673ffffffffffffffffffffffffffffffffffffffff16815260200190815260200160002060006101000a81548160ff0219169083151502179055508173ffffffffffffffffffffffffffffffffffffffff16610ecc6114c4565b73ffffffffffffffffffffffffffffffffffffffff167f17307eab39ab6107e8899845ad3d59bd9653f200f220920489ca2b5937696c3183604051610f119190612aab565b60405180910390a35050565b610f256114c4565b73ffffffffffffffffffffffffffffffffffffffff16610f43610ce1565b73ffffffffffffffffffffffffffffffffffffffff1614610f99576040517f08c379a0000000000000000000000000000000000000000000000000000000008152600401610f9090612cc5565b60405180910390fd5b6127108110610fdd576040517f08c379a0000000000000000000000000000000000000000000000000000000008152600401610fd490612d65565b60405180910390fd5b6000610fe96009611b3d565b9050610ff58782611b4b565b60405180606001604052808581526020018781526020018681525060086000838152602001908152602001600020600082015181600001908051906020019061103f92919061200b565b50602082015181600101908051906020019061105c92919061200b565b5060408201518160020155905050611075838383611d19565b61107f6009611dea565b50505050505050565b60076020528060005260406000206000915090508060000154908060010160009054906101000a900473ffffffffffffffffffffffffffffffffffffffff16905082565b6110dd6110d76114c4565b83611585565b61111c576040517f08c379a000000000000000000000000000000000000000000000000000000000815260040161111390612d45565b60405180910390fd5b61112884848484611e00565b50505050565b606061113982611458565b611178576040517f08c379a000000000000000000000000000000000000000000000000000000000815260040161116f90612d05565b60405180910390fd5b7f000000000000000000000000000000000000000000000000000000000000000073ffffffffffffffffffffffffffffffffffffffff1663d01fde8c600860008581526020019081526020016000206000016040518263ffffffff1660e01b81526004016111e69190612ae1565b60006040518083038186803b1580156111fe57600080fd5b505afa158015611212573d6000803e3d6000fd5b505050506040513d6000823e3d601f19601f8201168201806040525081019061123b919061255e565b9050919050565b6000600660008473ffffffffffffffffffffffffffffffffffffffff1673ffffffffffffffffffffffffffffffffffffffff16815260200190815260200160002060008373ffffffffffffffffffffffffffffffffffffffff1673ffffffffffffffffffffffffffffffffffffffff16815260200190815260200160002060009054906101000a900460ff16905092915050565b6112de6114c4565b73ffffffffffffffffffffffffffffffffffffffff166112fc610ce1565b73ffffffffffffffffffffffffffffffffffffffff1614611352576040517f08c379a000000000000000000000000000000000000000000000000000000000815260040161134990612cc5565b60405180910390fd5b600073ffffffffffffffffffffffffffffffffffffffff168173ffffffffffffffffffffffffffffffffffffffff1614156113c2576040517f08c379a00000000000000000000000000000000000000000000000000000000081526004016113b990612b45565b60405180910390fd5b6113cb81611a79565b50565b600060086000838152602001908152602001600020600201549050919050565b60007f2a55205a000000000000000000000000000000000000000000000000000000007bffffffffffffffffffffffffffffffffffffffffffffffffffffffff1916827bffffffffffffffffffffffffffffffffffffffffffffffffffffffff1916149050919050565b60008073ffffffffffffffffffffffffffffffffffffffff166003600084815260200190815260200160002060009054906101000a900473ffffffffffffffffffffffffffffffffffffffff1673ffffffffffffffffffffffffffffffffffffffff1614159050919050565b600033905090565b816005600083815260200190815260200160002060006101000a81548173ffffffffffffffffffffffffffffffffffffffff021916908373ffffffffffffffffffffffffffffffffffffffff160217905550808273ffffffffffffffffffffffffffffffffffffffff1661153f83610a47565b73ffffffffffffffffffffffffffffffffffffffff167f8c5be1e5ebec7d5bd14f71427d1e84f3dd0314c0f7b2291e5b200ac8c7c3b92560405160405180910390a45050565b600061159082611458565b6115cf576040517f08c379a00000000000000000000000000000000000000000000000000000000081526004016115c690612c05565b60405180910390fd5b60006115da83610a47565b90508073ffffffffffffffffffffffffffffffffffffffff168473ffffffffffffffffffffffffffffffffffffffff16148061164957508373ffffffffffffffffffffffffffffffffffffffff16611631846105a0565b73ffffffffffffffffffffffffffffffffffffffff16145b8061165a57506116598185611242565b5b91505092915050565b8273ffffffffffffffffffffffffffffffffffffffff1661168382610a47565b73ffffffffffffffffffffffffffffffffffffffff16146116d9576040517f08c379a00000000000000000000000000000000000000000000000000000000081526004016116d090612ce5565b60405180910390fd5b600073ffffffffffffffffffffffffffffffffffffffff168273ffffffffffffffffffffffffffffffffffffffff161415611749576040517f08c379a000000000000000000000000000000000000000000000000000000000815260040161174090612b85565b60405180910390fd5b611754838383611e5c565b61175f6000826114cc565b6001600460008573ffffffffffffffffffffffffffffffffffffffff1673ffffffffffffffffffffffffffffffffffffffff16815260200190815260200160002060008282546117af9190612f7e565b925050819055506001600460008473ffffffffffffffffffffffffffffffffffffffff1673ffffffffffffffffffffffffffffffffffffffff16815260200190815260200160002060008282546118069190612e9d565b92505081905550816003600083815260200190815260200160002060006101000a81548173ffffffffffffffffffffffffffffffffffffffff021916908373ffffffffffffffffffffffffffffffffffffffff160217905550808273ffffffffffffffffffffffffffffffffffffffff168473ffffffffffffffffffffffffffffffffffffffff167fddf252ad1be2c89b69c2b068fc378daa952ba7f163c4a11628f55a4df523b3ef60405160405180910390a4505050565b60006118ca82610a47565b90506118d881600084611e5c565b6118e36000836114cc565b6001600460008373ffffffffffffffffffffffffffffffffffffffff1673ffffffffffffffffffffffffffffffffffffffff16815260200190815260200160002060008282546119339190612f7e565b925050819055506003600083815260200190815260200160002060006101000a81549073ffffffffffffffffffffffffffffffffffffffff021916905581600073ffffffffffffffffffffffffffffffffffffffff168273ffffffffffffffffffffffffffffffffffffffff167fddf252ad1be2c89b69c2b068fc378daa952ba7f163c4a11628f55a4df523b3ef60405160405180910390a45050565b807ffc9b1671d29577a4f427484232806ff985d95bb27e06baebe20c67ec4e748823836007600085815260200190815260200160002060000154604051611a18929190612a82565b60405180910390a2816007600083815260200190815260200160002060010160006101000a81548173ffffffffffffffffffffffffffffffffffffffff021916908373ffffffffffffffffffffffffffffffffffffffff1602179055505050565b60008060009054906101000a900473ffffffffffffffffffffffffffffffffffffffff169050816000806101000a81548173ffffffffffffffffffffffffffffffffffffffff021916908373ffffffffffffffffffffffffffffffffffffffff1602179055508173ffffffffffffffffffffffffffffffffffffffff168173ffffffffffffffffffffffffffffffffffffffff167f8be0079c531659141344cd1fd0a4f28419497f9722a3daafe3b4186f6b6457e060405160405180910390a35050565b600081600001549050919050565b600073ffffffffffffffffffffffffffffffffffffffff168273ffffffffffffffffffffffffffffffffffffffff161415611bbb576040517f08c379a0000000000000000000000000000000000000000000000000000000008152600401611bb290612c85565b60405180910390fd5b611bc481611458565b15611c04576040517f08c379a0000000000000000000000000000000000000000000000000000000008152600401611bfb90612b65565b60405180910390fd5b611c1060008383611e5c565b6001600460008473ffffffffffffffffffffffffffffffffffffffff1673ffffffffffffffffffffffffffffffffffffffff1681526020019081526020016000206000828254611c609190612e9d565b92505081905550816003600083815260200190815260200160002060006101000a81548173ffffffffffffffffffffffffffffffffffffffff021916908373ffffffffffffffffffffffffffffffffffffffff160217905550808273ffffffffffffffffffffffffffffffffffffffff16600073ffffffffffffffffffffffffffffffffffffffff167fddf252ad1be2c89b69c2b068fc378daa952ba7f163c4a11628f55a4df523b3ef60405160405180910390a45050565b807ffc9b1671d29577a4f427484232806ff985d95bb27e06baebe20c67ec4e7488238484604051611d4b929190612a82565b60405180910390a260405180604001604052808381526020018473ffffffffffffffffffffffffffffffffffffffff16815250600760008381526020019081526020016000206000820151816000015560208201518160010160006101000a81548173ffffffffffffffffffffffffffffffffffffffff021916908373ffffffffffffffffffffffffffffffffffffffff160217905550905050505050565b6001816000016000828254019250508190555050565b611e0b848484611663565b611e1784848484611e61565b611e56576040517f08c379a0000000000000000000000000000000000000000000000000000000008152600401611e4d90612b25565b60405180910390fd5b50505050565b505050565b6000611e828473ffffffffffffffffffffffffffffffffffffffff16611ff8565b15611feb578373ffffffffffffffffffffffffffffffffffffffff1663150b7a02611eab6114c4565b8786866040518563ffffffff1660e01b8152600401611ecd9493929190612a36565b602060405180830381600087803b158015611ee757600080fd5b505af1925050508015611f1857506040513d601f19601f82011682018060405250810190611f159190612531565b60015b611f9b573d8060008114611f48576040519150601f19603f3d011682016040523d82523d6000602084013e611f4d565b606091505b50600081511415611f93576040517f08c379a0000000000000000000000000000000000000000000000000000000008152600401611f8a90612b25565b60405180910390fd5b805181602001fd5b63150b7a0260e01b7bffffffffffffffffffffffffffffffffffffffffffffffffffffffff1916817bffffffffffffffffffffffffffffffffffffffffffffffffffffffff191614915050611ff0565b600190505b949350505050565b600080823b905060008111915050919050565b82805461201790613072565b90600052602060002090601f0160209004810192826120395760008555612080565b82601f1061205257805160ff1916838001178555612080565b82800160010185558215612080579182015b8281111561207f578251825591602001919060010190612064565b5b50905061208d9190612091565b5090565b5b808211156120aa576000816000905550600101612092565b5090565b60006120c16120bc84612dee565b612dc9565b9050828152602081018484840111156120dd576120dc613196565b5b6120e8848285613030565b509392505050565b60006121036120fe84612e1f565b612dc9565b90508281526020810184848401111561211f5761211e613196565b5b61212a848285613030565b509392505050565b600061214561214084612e1f565b612dc9565b90508281526020810184848401111561216157612160613196565b5b61216c84828561303f565b509392505050565b600081359050612183816136af565b92915050565b600081359050612198816136c6565b92915050565b6000813590506121ad816136dd565b92915050565b6000813590506121c2816136f4565b92915050565b6000815190506121d7816136f4565b92915050565b600082601f8301126121f2576121f1613191565b5b81356122028482602086016120ae565b91505092915050565b600082601f8301126122205761221f613191565b5b81356122308482602086016120f0565b91505092915050565b600082601f83011261224e5761224d613191565b5b815161225e848260208601612132565b91505092915050565b6000813590506122768161370b565b92915050565b600060208284031215612292576122916131a0565b5b60006122a084828501612174565b91505092915050565b600080604083850312156122c0576122bf6131a0565b5b60006122ce85828601612174565b92505060206122df85828601612174565b9150509250929050565b600080600060608486031215612302576123016131a0565b5b600061231086828701612174565b935050602061232186828701612174565b925050604061233286828701612267565b9150509250925092565b60008060008060808587031215612356576123556131a0565b5b600061236487828801612174565b945050602061237587828801612174565b935050604061238687828801612267565b925050606085013567ffffffffffffffff8111156123a7576123a661319b565b5b6123b3878288016121dd565b91505092959194509250565b600080604083850312156123d6576123d56131a0565b5b60006123e485828601612174565b92505060206123f585828601612189565b9150509250929050565b60008060008060008060c0878903121561241c5761241b6131a0565b5b600061242a89828a01612174565b965050602087013567ffffffffffffffff81111561244b5761244a61319b565b5b61245789828a0161220b565b955050604061246889828a0161219e565b945050606087013567ffffffffffffffff8111156124895761248861319b565b5b61249589828a0161220b565b93505060806124a689828a01612174565b92505060a06124b789828a01612267565b9150509295509295509295565b600080604083850312156124db576124da6131a0565b5b60006124e985828601612174565b92505060206124fa85828601612267565b9150509250929050565b60006020828403121561251a576125196131a0565b5b6000612528848285016121b3565b91505092915050565b600060208284031215612547576125466131a0565b5b6000612555848285016121c8565b91505092915050565b600060208284031215612574576125736131a0565b5b600082015167ffffffffffffffff8111156125925761259161319b565b5b61259e84828501612239565b91505092915050565b6000602082840312156125bd576125bc6131a0565b5b60006125cb84828501612267565b91505092915050565b600080604083850312156125eb576125ea6131a0565b5b60006125f985828601612267565b925050602061260a85828601612174565b9150509250929050565b6000806040838503121561262b5761262a6131a0565b5b600061263985828601612267565b925050602061264a85828601612267565b9150509250929050565b61265d81612fb2565b82525050565b61266c81612fc4565b82525050565b61267b81612fd0565b82525050565b600061268c82612e65565b6126968185612e7b565b93506126a681856020860161303f565b6126af816131a5565b840191505092915050565b600081546126c781613072565b6126d18186612e7b565b945060018216600081146126ec57600181146126fe57612731565b60ff1983168652602086019350612731565b61270785612e50565b60005b838110156127295781548189015260018201915060208101905061270a565b808801955050505b50505092915050565b600061274582612e70565b61274f8185612e8c565b935061275f81856020860161303f565b612768816131a5565b840191505092915050565b6000612780603283612e8c565b915061278b826131b6565b604082019050919050565b60006127a3602683612e8c565b91506127ae82613205565b604082019050919050565b60006127c6601c83612e8c565b91506127d182613254565b602082019050919050565b60006127e9602483612e8c565b91506127f48261327d565b604082019050919050565b600061280c601983612e8c565b9150612817826132cc565b602082019050919050565b600061282f600983612e8c565b915061283a826132f5565b602082019050919050565b6000612852601483612e8c565b915061285d8261331e565b602082019050919050565b6000612875602c83612e8c565b915061288082613347565b604082019050919050565b6000612898603883612e8c565b91506128a382613396565b604082019050919050565b60006128bb602a83612e8c565b91506128c6826133e5565b604082019050919050565b60006128de602983612e8c565b91506128e982613434565b604082019050919050565b6000612901602083612e8c565b915061290c82613483565b602082019050919050565b6000612924602c83612e8c565b915061292f826134ac565b604082019050919050565b6000612947602083612e8c565b9150612952826134fb565b602082019050919050565b600061296a602983612e8c565b915061297582613524565b604082019050919050565b600061298d602f83612e8c565b915061299882613573565b604082019050919050565b60006129b0602183612e8c565b91506129bb826135c2565b604082019050919050565b60006129d3603183612e8c565b91506129de82613611565b604082019050919050565b60006129f6602e83612e8c565b9150612a0182613660565b604082019050919050565b612a1581613026565b82525050565b6000602082019050612a306000830184612654565b92915050565b6000608082019050612a4b6000830187612654565b612a586020830186612654565b612a656040830185612a0c565b8181036060830152612a778184612681565b905095945050505050565b6000604082019050612a976000830185612654565b612aa46020830184612a0c565b9392505050565b6000602082019050612ac06000830184612663565b92915050565b6000602082019050612adb6000830184612672565b92915050565b60006020820190508181036000830152612afb81846126ba565b905092915050565b60006020820190508181036000830152612b1d818461273a565b905092915050565b60006020820190508181036000830152612b3e81612773565b9050919050565b60006020820190508181036000830152612b5e81612796565b9050919050565b60006020820190508181036000830152612b7e816127b9565b9050919050565b60006020820190508181036000830152612b9e816127dc565b9050919050565b60006020820190508181036000830152612bbe816127ff565b9050919050565b60006020820190508181036000830152612bde81612822565b9050919050565b60006020820190508181036000830152612bfe81612845565b9050919050565b60006020820190508181036000830152612c1e81612868565b9050919050565b60006020820190508181036000830152612c3e8161288b565b9050919050565b60006020820190508181036000830152612c5e816128ae565b9050919050565b60006020820190508181036000830152612c7e816128d1565b9050919050565b60006020820190508181036000830152612c9e816128f4565b9050919050565b60006020820190508181036000830152612cbe81612917565b9050919050565b60006020820190508181036000830152612cde8161293a565b9050919050565b60006020820190508181036000830152612cfe8161295d565b9050919050565b60006020820190508181036000830152612d1e81612980565b9050919050565b60006020820190508181036000830152612d3e816129a3565b9050919050565b60006020820190508181036000830152612d5e816129c6565b9050919050565b60006020820190508181036000830152612d7e816129e9565b9050919050565b6000602082019050612d9a6000830184612a0c565b92915050565b6000604082019050612db56000830185612a0c565b612dc26020830184612654565b9392505050565b6000612dd3612de4565b9050612ddf82826130a4565b919050565b6000604051905090565b600067ffffffffffffffff821115612e0957612e08613162565b5b612e12826131a5565b9050602081019050919050565b600067ffffffffffffffff821115612e3a57612e39613162565b5b612e43826131a5565b9050602081019050919050565b60008190508160005260206000209050919050565b600081519050919050565b600081519050919050565b600082825260208201905092915050565b600082825260208201905092915050565b6000612ea882613026565b9150612eb383613026565b9250827fffffffffffffffffffffffffffffffffffffffffffffffffffffffffffffffff03821115612ee857612ee76130d5565b5b828201905092915050565b6000612efe82613026565b9150612f0983613026565b925082612f1957612f18613104565b5b828204905092915050565b6000612f2f82613026565b9150612f3a83613026565b9250817fffffffffffffffffffffffffffffffffffffffffffffffffffffffffffffffff0483118215151615612f7357612f726130d5565b5b828202905092915050565b6000612f8982613026565b9150612f9483613026565b925082821015612fa757612fa66130d5565b5b828203905092915050565b6000612fbd82613006565b9050919050565b60008115159050919050565b6000819050919050565b60007fffffffff0000000000000000000000000000000000000000000000000000000082169050919050565b600073ffffffffffffffffffffffffffffffffffffffff82169050919050565b6000819050919050565b82818337600083830152505050565b60005b8381101561305d578082015181840152602081019050613042565b8381111561306c576000848401525b50505050565b6000600282049050600182168061308a57607f821691505b6020821081141561309e5761309d613133565b5b50919050565b6130ad826131a5565b810181811067ffffffffffffffff821117156130cc576130cb613162565b5b80604052505050565b7f4e487b7100000000000000000000000000000000000000000000000000000000600052601160045260246000fd5b7f4e487b7100000000000000000000000000000000000000000000000000000000600052601260045260246000fd5b7f4e487b7100000000000000000000000000000000000000000000000000000000600052602260045260246000fd5b7f4e487b7100000000000000000000000000000000000000000000000000000000600052604160045260246000fd5b600080fd5b600080fd5b600080fd5b600080fd5b6000601f19601f8301169050919050565b7f4552433732313a207472616e7366657220746f206e6f6e20455243373231526560008201527f63656976657220696d706c656d656e7465720000000000000000000000000000602082015250565b7f4f776e61626c653a206e6577206f776e657220697320746865207a65726f206160008201527f6464726573730000000000000000000000000000000000000000000000000000602082015250565b7f4552433732313a20746f6b656e20616c7265616479206d696e74656400000000600082015250565b7f4552433732313a207472616e7366657220746f20746865207a65726f2061646460008201527f7265737300000000000000000000000000000000000000000000000000000000602082015250565b7f4552433732313a20617070726f766520746f2063616c6c657200000000000000600082015250565b7f4e6f74204f776e65720000000000000000000000000000000000000000000000600082015250565b7f546f6b656e20646f6573206e6f74206578697374000000000000000000000000600082015250565b7f4552433732313a206f70657261746f7220717565727920666f72206e6f6e657860008201527f697374656e7420746f6b656e0000000000000000000000000000000000000000602082015250565b7f4552433732313a20617070726f76652063616c6c6572206973206e6f74206f7760008201527f6e6572206e6f7220617070726f76656420666f7220616c6c0000000000000000602082015250565b7f4552433732313a2062616c616e636520717565727920666f7220746865207a6560008201527f726f206164647265737300000000000000000000000000000000000000000000602082015250565b7f4552433732313a206f776e657220717565727920666f72206e6f6e657869737460008201527f656e7420746f6b656e0000000000000000000000000000000000000000000000602082015250565b7f4552433732313a206d696e7420746f20746865207a65726f2061646472657373600082015250565b7f4552433732313a20617070726f76656420717565727920666f72206e6f6e657860008201527f697374656e7420746f6b656e0000000000000000000000000000000000000000602082015250565b7f4f776e61626c653a2063616c6c6572206973206e6f7420746865206f776e6572600082015250565b7f4552433732313a207472616e73666572206f6620746f6b656e2074686174206960008201527f73206e6f74206f776e0000000000000000000000000000000000000000000000602082015250565b7f4552433732314d657461646174613a2055524920717565727920666f72206e6f60008201527f6e6578697374656e7420746f6b656e0000000000000000000000000000000000602082015250565b7f4552433732313a20617070726f76616c20746f2063757272656e74206f776e6560008201527f7200000000000000000000000000000000000000000000000000000000000000602082015250565b7f4552433732313a207472616e736665722063616c6c6572206973206e6f74206f60008201527f776e6572206e6f7220617070726f766564000000000000000000000000000000602082015250565b7f526f79616c7479206e6565647320746f206265206c657373207468616e20313060008201527f3030302062707320283130302529000000000000000000000000000000000000602082015250565b6136b881612fb2565b81146136c357600080fd5b50565b6136cf81612fc4565b81146136da57600080fd5b50565b6136e681612fd0565b81146136f157600080fd5b50565b6136fd81612fda565b811461370857600080fd5b50565b61371481613026565b811461371f57600080fd5b5056fea2646970667358221220d38a2d1cb4b685a2a12f50001e6e5d72bbe7e92d4b136c2e79921ef73f88865d64736f6c63430008060033",
  "devdoc": {
    "kind": "dev",
    "methods": {
      "approve(address,uint256)": {
        "details": "See {IERC721-approve}."
      },
      "balanceOf(address)": {
        "details": "See {IERC721-balanceOf}."
      },
      "burn(uint256)": {
        "params": {
          "tokenId": "Token ID to burn"
        }
      },
      "constructor": {
        "details": "Sets up ERC721 Token"
      },
      "contentHash(uint256)": {
        "params": {
          "tokenId": "token id to retrieve hash for"
        }
      },
      "contentURI(uint256)": {
        "params": {
          "tokenId": "token id to retrieve content for"
        }
      },
      "getApproved(uint256)": {
        "details": "See {IERC721-getApproved}."
      },
      "isApprovedForAll(address,address)": {
        "details": "See {IERC721-isApprovedForAll}."
      },
      "mint(address,string,bytes32,string,address,uint256)": {
        "details": "Creates a new token for `to`. Its token ID will be automatically assigned (and available on the emitted {IERC721-Transfer} event), and the token URI autogenerated based on the base URI passed at construction. See {ERC721-_mint}. Requirements: - the caller must have the `MINTER_ROLE`."
      },
      "name()": {
        "details": "See {IERC721Metadata-name}."
      },
      "owner()": {
        "details": "Returns the address of the current owner."
      },
      "ownerOf(uint256)": {
        "details": "See {IERC721-ownerOf}."
      },
      "renounceOwnership()": {
        "details": "Leaves the contract without owner. It will not be possible to call `onlyOwner` functions anymore. Can only be called by the current owner. NOTE: Renouncing ownership will leave the contract without an owner, thereby removing any functionality that is only available to the owner."
      },
      "royaltyInfo(uint256,uint256)": {
        "params": {
          "salePrice": "- the sale price of the NFT asset specified by _tokenId",
          "tokenId": "- the NFT asset queried for royalty information"
        },
        "returns": {
          "receiver": "- address of who should be sent the royalty payment",
          "royaltyAmount": "- the royalty payment amount for _salePrice"
        }
      },
      "safeTransferFrom(address,address,uint256)": {
        "details": "See {IERC721-safeTransferFrom}."
      },
      "safeTransferFrom(address,address,uint256,bytes)": {
        "details": "See {IERC721-safeTransferFrom}."
      },
      "setApprovalForAll(address,bool)": {
        "details": "See {IERC721-setApprovalForAll}."
      },
      "setRoyaltyPayoutAddressForToken(uint256,address)": {
        "params": {
          "newAddress": "new address to recieve royalty payout on-chain",
          "tokenId": "token id to set royalty payout for"
        }
      },
      "symbol()": {
        "details": "See {IERC721Metadata-symbol}."
      },
      "tokenURI(uint256)": {
        "params": {
          "tokenId": "token id to get uri for"
        }
      },
      "transferFrom(address,address,uint256)": {
        "details": "See {IERC721-transferFrom}."
      },
      "transferOwnership(address)": {
        "details": "Transfers ownership of the contract to a new account (`newOwner`). Can only be called by the current owner."
      }
    },
    "version": 1
  },
  "userdoc": {
    "kind": "user",
    "methods": {
      "burn(uint256)": {
        "notice": "Only owner of token can burn."
      }
    },
    "notice": "org: zoralabs project: on-chain metadata essay contract author: matthew ball",
    "version": 1
  },
  "storageLayout": {
    "storage": [
      {
        "astId": 7,
        "contract": "contracts/MatthewBallMinting.sol:MatthewBallMinting",
        "label": "_owner",
        "offset": 0,
        "slot": "0",
        "type": "t_address"
      },
      {
        "astId": 151,
        "contract": "contracts/MatthewBallMinting.sol:MatthewBallMinting",
        "label": "_name",
        "offset": 0,
        "slot": "1",
        "type": "t_string_storage"
      },
      {
        "astId": 153,
        "contract": "contracts/MatthewBallMinting.sol:MatthewBallMinting",
        "label": "_symbol",
        "offset": 0,
        "slot": "2",
        "type": "t_string_storage"
      },
      {
        "astId": 157,
        "contract": "contracts/MatthewBallMinting.sol:MatthewBallMinting",
        "label": "_owners",
        "offset": 0,
        "slot": "3",
        "type": "t_mapping(t_uint256,t_address)"
      },
      {
        "astId": 161,
        "contract": "contracts/MatthewBallMinting.sol:MatthewBallMinting",
        "label": "_balances",
        "offset": 0,
        "slot": "4",
        "type": "t_mapping(t_address,t_uint256)"
      },
      {
        "astId": 165,
        "contract": "contracts/MatthewBallMinting.sol:MatthewBallMinting",
        "label": "_tokenApprovals",
        "offset": 0,
        "slot": "5",
        "type": "t_mapping(t_uint256,t_address)"
      },
      {
        "astId": 171,
        "contract": "contracts/MatthewBallMinting.sol:MatthewBallMinting",
        "label": "_operatorApprovals",
        "offset": 0,
        "slot": "6",
        "type": "t_mapping(t_address,t_mapping(t_address,t_bool))"
      },
      {
        "astId": 2060,
        "contract": "contracts/MatthewBallMinting.sol:MatthewBallMinting",
        "label": "royalities",
        "offset": 0,
        "slot": "7",
        "type": "t_mapping(t_uint256,t_struct(RoyaltyInfo)2055_storage)"
      },
      {
        "astId": 1819,
        "contract": "contracts/MatthewBallMinting.sol:MatthewBallMinting",
        "label": "tokenInfo",
        "offset": 0,
        "slot": "8",
        "type": "t_mapping(t_uint256,t_struct(TokenInfo)1811_storage)"
      },
      {
        "astId": 1826,
        "contract": "contracts/MatthewBallMinting.sol:MatthewBallMinting",
        "label": "_tokenIdTracker",
        "offset": 0,
        "slot": "9",
        "type": "t_struct(Counter)1427_storage"
      }
    ],
    "types": {
      "t_address": {
        "encoding": "inplace",
        "label": "address",
        "numberOfBytes": "20"
      },
      "t_bool": {
        "encoding": "inplace",
        "label": "bool",
        "numberOfBytes": "1"
      },
      "t_bytes32": {
        "encoding": "inplace",
        "label": "bytes32",
        "numberOfBytes": "32"
      },
      "t_mapping(t_address,t_bool)": {
        "encoding": "mapping",
        "key": "t_address",
        "label": "mapping(address => bool)",
        "numberOfBytes": "32",
        "value": "t_bool"
      },
      "t_mapping(t_address,t_mapping(t_address,t_bool))": {
        "encoding": "mapping",
        "key": "t_address",
        "label": "mapping(address => mapping(address => bool))",
        "numberOfBytes": "32",
        "value": "t_mapping(t_address,t_bool)"
      },
      "t_mapping(t_address,t_uint256)": {
        "encoding": "mapping",
        "key": "t_address",
        "label": "mapping(address => uint256)",
        "numberOfBytes": "32",
        "value": "t_uint256"
      },
      "t_mapping(t_uint256,t_address)": {
        "encoding": "mapping",
        "key": "t_uint256",
        "label": "mapping(uint256 => address)",
        "numberOfBytes": "32",
        "value": "t_address"
      },
      "t_mapping(t_uint256,t_struct(RoyaltyInfo)2055_storage)": {
        "encoding": "mapping",
        "key": "t_uint256",
        "label": "mapping(uint256 => struct RoyaltyConfig.RoyaltyInfo)",
        "numberOfBytes": "32",
        "value": "t_struct(RoyaltyInfo)2055_storage"
      },
      "t_mapping(t_uint256,t_struct(TokenInfo)1811_storage)": {
        "encoding": "mapping",
        "key": "t_uint256",
        "label": "mapping(uint256 => struct MatthewBallMinting.TokenInfo)",
        "numberOfBytes": "32",
        "value": "t_struct(TokenInfo)1811_storage"
      },
      "t_string_storage": {
        "encoding": "bytes",
        "label": "string",
        "numberOfBytes": "32"
      },
      "t_struct(Counter)1427_storage": {
        "encoding": "inplace",
        "label": "struct Counters.Counter",
        "members": [
          {
            "astId": 1426,
            "contract": "contracts/MatthewBallMinting.sol:MatthewBallMinting",
            "label": "_value",
            "offset": 0,
            "slot": "0",
            "type": "t_uint256"
          }
        ],
        "numberOfBytes": "32"
      },
      "t_struct(RoyaltyInfo)2055_storage": {
        "encoding": "inplace",
        "label": "struct RoyaltyConfig.RoyaltyInfo",
        "members": [
          {
            "astId": 2052,
            "contract": "contracts/MatthewBallMinting.sol:MatthewBallMinting",
            "label": "bps",
            "offset": 0,
            "slot": "0",
            "type": "t_uint256"
          },
          {
            "astId": 2054,
            "contract": "contracts/MatthewBallMinting.sol:MatthewBallMinting",
            "label": "receiver",
            "offset": 0,
            "slot": "1",
            "type": "t_address"
          }
        ],
        "numberOfBytes": "64"
      },
      "t_struct(TokenInfo)1811_storage": {
        "encoding": "inplace",
        "label": "struct MatthewBallMinting.TokenInfo",
        "members": [
          {
            "astId": 1806,
            "contract": "contracts/MatthewBallMinting.sol:MatthewBallMinting",
            "label": "metadataContent",
            "offset": 0,
            "slot": "0",
            "type": "t_string_storage"
          },
          {
            "astId": 1808,
            "contract": "contracts/MatthewBallMinting.sol:MatthewBallMinting",
            "label": "contentUri",
            "offset": 0,
            "slot": "1",
            "type": "t_string_storage"
          },
          {
            "astId": 1810,
            "contract": "contracts/MatthewBallMinting.sol:MatthewBallMinting",
            "label": "contentHash",
            "offset": 0,
            "slot": "2",
            "type": "t_bytes32"
          }
        ],
        "numberOfBytes": "96"
      },
      "t_uint256": {
        "encoding": "inplace",
        "label": "uint256",
        "numberOfBytes": "32"
      }
    }
  }
}