{
  "address": "0x6825e917B4bdDF17574405E95970180c1D742428",
  "abi": [
    {
      "inputs": [
        {
          "internalType": "string",
          "name": "name",
          "type": "string"
        },
        {
          "internalType": "string",
          "name": "symbol",
          "type": "string"
        },
        {
          "internalType": "contract IPublicSharedMetadata",
          "name": "_sharedMetadata",
          "type": "address"
        }
      ],
      "stateMutability": "nonpayable",
      "type": "constructor"
    },
    {
      "anonymous": false,
      "inputs": [
        {
          "indexed": true,
          "internalType": "address",
          "name": "owner",
          "type": "address"
        },
        {
          "indexed": true,
          "internalType": "address",
          "name": "approved",
          "type": "address"
        },
        {
          "indexed": true,
          "internalType": "uint256",
          "name": "tokenId",
          "type": "uint256"
        }
      ],
      "name": "Approval",
      "type": "event"
    },
    {
      "anonymous": false,
      "inputs": [
        {
          "indexed": true,
          "internalType": "address",
          "name": "owner",
          "type": "address"
        },
        {
          "indexed": true,
          "internalType": "address",
          "name": "operator",
          "type": "address"
        },
        {
          "indexed": false,
          "internalType": "bool",
          "name": "approved",
          "type": "bool"
        }
      ],
      "name": "ApprovalForAll",
      "type": "event"
    },
    {
      "anonymous": false,
      "inputs": [
        {
          "indexed": true,
          "internalType": "address",
          "name": "previousOwner",
          "type": "address"
        },
        {
          "indexed": true,
          "internalType": "address",
          "name": "newOwner",
          "type": "address"
        }
      ],
      "name": "OwnershipTransferred",
      "type": "event"
    },
    {
      "anonymous": false,
      "inputs": [
        {
          "indexed": true,
          "internalType": "address",
          "name": "from",
          "type": "address"
        },
        {
          "indexed": true,
          "internalType": "address",
          "name": "to",
          "type": "address"
        },
        {
          "indexed": true,
          "internalType": "uint256",
          "name": "tokenId",
          "type": "uint256"
        }
      ],
      "name": "Transfer",
      "type": "event"
    },
    {
      "anonymous": false,
      "inputs": [
        {
          "indexed": true,
          "internalType": "uint256",
          "name": "tokenId",
          "type": "uint256"
        },
        {
          "indexed": false,
          "internalType": "address",
          "name": "recipient",
          "type": "address"
        },
        {
          "indexed": false,
          "internalType": "uint256",
          "name": "bps",
          "type": "uint256"
        }
      ],
      "name": "UpdatedRoyalty",
      "type": "event"
    },
    {
      "inputs": [
        {
          "internalType": "address",
          "name": "to",
          "type": "address"
        },
        {
          "internalType": "uint256",
          "name": "tokenId",
          "type": "uint256"
        }
      ],
      "name": "approve",
      "outputs": [],
      "stateMutability": "nonpayable",
      "type": "function"
    },
    {
      "inputs": [
        {
          "internalType": "address",
          "name": "owner",
          "type": "address"
        }
      ],
      "name": "balanceOf",
      "outputs": [
        {
          "internalType": "uint256",
          "name": "",
          "type": "uint256"
        }
      ],
      "stateMutability": "view",
      "type": "function"
    },
    {
      "inputs": [
        {
          "internalType": "uint256",
          "name": "tokenId",
          "type": "uint256"
        }
      ],
      "name": "burn",
      "outputs": [],
      "stateMutability": "nonpayable",
      "type": "function"
    },
    {
      "inputs": [
        {
          "internalType": "uint256",
          "name": "tokenId",
          "type": "uint256"
        }
      ],
      "name": "contentHash",
      "outputs": [
        {
          "internalType": "bytes32",
          "name": "",
          "type": "bytes32"
        }
      ],
      "stateMutability": "view",
      "type": "function"
    },
    {
      "inputs": [
        {
          "internalType": "uint256",
          "name": "tokenId",
          "type": "uint256"
        }
      ],
      "name": "contentURI",
      "outputs": [
        {
          "internalType": "string",
          "name": "",
          "type": "string"
        }
      ],
      "stateMutability": "view",
      "type": "function"
    },
    {
      "inputs": [
        {
          "internalType": "uint256",
          "name": "tokenId",
          "type": "uint256"
        }
      ],
      "name": "getApproved",
      "outputs": [
        {
          "internalType": "address",
          "name": "",
          "type": "address"
        }
      ],
      "stateMutability": "view",
      "type": "function"
    },
    {
      "inputs": [
        {
          "internalType": "address",
          "name": "owner",
          "type": "address"
        },
        {
          "internalType": "address",
          "name": "operator",
          "type": "address"
        }
      ],
      "name": "isApprovedForAll",
      "outputs": [
        {
          "internalType": "bool",
          "name": "",
          "type": "bool"
        }
      ],
      "stateMutability": "view",
      "type": "function"
    },
    {
      "inputs": [
        {
          "internalType": "address",
          "name": "to",
          "type": "address"
        },
        {
          "internalType": "string",
          "name": "contentUri",
          "type": "string"
        },
        {
          "internalType": "bytes32",
          "name": "_contentHash",
          "type": "bytes32"
        },
        {
          "internalType": "string",
          "name": "metadataContent",
          "type": "string"
        },
        {
          "internalType": "address",
          "name": "royaltyPayoutAddress",
          "type": "address"
        },
        {
          "internalType": "uint256",
          "name": "royaltyBPS",
          "type": "uint256"
        }
      ],
      "name": "mint",
      "outputs": [],
      "stateMutability": "nonpayable",
      "type": "function"
    },
    {
      "inputs": [],
      "name": "name",
      "outputs": [
        {
          "internalType": "string",
          "name": "",
          "type": "string"
        }
      ],
      "stateMutability": "view",
      "type": "function"
    },
    {
      "inputs": [],
      "name": "owner",
      "outputs": [
        {
          "internalType": "address",
          "name": "",
          "type": "address"
        }
      ],
      "stateMutability": "view",
      "type": "function"
    },
    {
      "inputs": [
        {
          "internalType": "uint256",
          "name": "tokenId",
          "type": "uint256"
        }
      ],
      "name": "ownerOf",
      "outputs": [
        {
          "internalType": "address",
          "name": "",
          "type": "address"
        }
      ],
      "stateMutability": "view",
      "type": "function"
    },
    {
      "inputs": [],
      "name": "renounceOwnership",
      "outputs": [],
      "stateMutability": "nonpayable",
      "type": "function"
    },
    {
      "inputs": [
        {
          "internalType": "uint256",
          "name": "",
          "type": "uint256"
        }
      ],
      "name": "royalities",
      "outputs": [
        {
          "internalType": "uint256",
          "name": "bps",
          "type": "uint256"
        },
        {
          "internalType": "address",
          "name": "receiver",
          "type": "address"
        }
      ],
      "stateMutability": "view",
      "type": "function"
    },
    {
      "inputs": [
        {
          "internalType": "uint256",
          "name": "tokenId",
          "type": "uint256"
        },
        {
          "internalType": "uint256",
          "name": "salePrice",
          "type": "uint256"
        }
      ],
      "name": "royaltyInfo",
      "outputs": [
        {
          "internalType": "address",
          "name": "receiver",
          "type": "address"
        },
        {
          "internalType": "uint256",
          "name": "royaltyAmount",
          "type": "uint256"
        }
      ],
      "stateMutability": "view",
      "type": "function"
    },
    {
      "inputs": [
        {
          "internalType": "address",
          "name": "from",
          "type": "address"
        },
        {
          "internalType": "address",
          "name": "to",
          "type": "address"
        },
        {
          "internalType": "uint256",
          "name": "tokenId",
          "type": "uint256"
        }
      ],
      "name": "safeTransferFrom",
      "outputs": [],
      "stateMutability": "nonpayable",
      "type": "function"
    },
    {
      "inputs": [
        {
          "internalType": "address",
          "name": "from",
          "type": "address"
        },
        {
          "internalType": "address",
          "name": "to",
          "type": "address"
        },
        {
          "internalType": "uint256",
          "name": "tokenId",
          "type": "uint256"
        },
        {
          "internalType": "bytes",
          "name": "_data",
          "type": "bytes"
        }
      ],
      "name": "safeTransferFrom",
      "outputs": [],
      "stateMutability": "nonpayable",
      "type": "function"
    },
    {
      "inputs": [
        {
          "internalType": "address",
          "name": "operator",
          "type": "address"
        },
        {
          "internalType": "bool",
          "name": "approved",
          "type": "bool"
        }
      ],
      "name": "setApprovalForAll",
      "outputs": [],
      "stateMutability": "nonpayable",
      "type": "function"
    },
    {
      "inputs": [
        {
          "internalType": "uint256",
          "name": "tokenId",
          "type": "uint256"
        },
        {
          "internalType": "address",
          "name": "newAddress",
          "type": "address"
        }
      ],
      "name": "setRoyaltyPayoutAddressForToken",
      "outputs": [],
      "stateMutability": "nonpayable",
      "type": "function"
    },
    {
      "inputs": [
        {
          "internalType": "bytes4",
          "name": "interfaceId",
          "type": "bytes4"
        }
      ],
      "name": "supportsInterface",
      "outputs": [
        {
          "internalType": "bool",
          "name": "",
          "type": "bool"
        }
      ],
      "stateMutability": "view",
      "type": "function"
    },
    {
      "inputs": [],
      "name": "symbol",
      "outputs": [
        {
          "internalType": "string",
          "name": "",
          "type": "string"
        }
      ],
      "stateMutability": "view",
      "type": "function"
    },
    {
      "inputs": [
        {
          "internalType": "uint256",
          "name": "tokenId",
          "type": "uint256"
        }
      ],
      "name": "tokenURI",
      "outputs": [
        {
          "internalType": "string",
          "name": "",
          "type": "string"
        }
      ],
      "stateMutability": "view",
      "type": "function"
    },
    {
      "inputs": [
        {
          "internalType": "address",
          "name": "from",
          "type": "address"
        },
        {
          "internalType": "address",
          "name": "to",
          "type": "address"
        },
        {
          "internalType": "uint256",
          "name": "tokenId",
          "type": "uint256"
        }
      ],
      "name": "transferFrom",
      "outputs": [],
      "stateMutability": "nonpayable",
      "type": "function"
    },
    {
      "inputs": [
        {
          "internalType": "address",
          "name": "newOwner",
          "type": "address"
        }
      ],
      "name": "transferOwnership",
      "outputs": [],
      "stateMutability": "nonpayable",
      "type": "function"
    },
    {
      "inputs": [
        {
          "internalType": "uint256",
          "name": "tokenId",
          "type": "uint256"
        },
        {
          "internalType": "string",
          "name": "newMetadataContent",
          "type": "string"
        }
      ],
      "name": "updateMetadataContent",
      "outputs": [],
      "stateMutability": "nonpayable",
      "type": "function"
    }
  ],
  "transactionHash": "0xa401b633faab678fb3cbda0fe527f292cb1199b029cb4cd925f014e1dabf9696",
  "args": [
    "Matthew Ball Metaverse Essays",
    "METAESSAY",
    "0x7eB947242dbF042e6388C329A614165d73548670"
  ],
  "solcInputHash": "af153576c677dac3ce2f9f3a9eff7419",
  "bytecode": "0x60a06040523480156200001157600080fd5b506040516200219438038062002194833981016040819052620000349162000235565b8282620000413362000088565b815162000056906001906020850190620000d8565b5080516200006c906002906020840190620000d8565b50505060601b6001600160601b03191660805250620003159050565b600080546001600160a01b038381166001600160a01b0319831681178455604051919092169283917f8be0079c531659141344cd1fd0a4f28419497f9722a3daafe3b4186f6b6457e09190a35050565b828054620000e690620002c2565b90600052602060002090601f0160209004810192826200010a576000855562000155565b82601f106200012557805160ff191683800117855562000155565b8280016001018555821562000155579182015b828111156200015557825182559160200191906001019062000138565b506200016392915062000167565b5090565b5b8082111562000163576000815560010162000168565b600082601f8301126200019057600080fd5b81516001600160401b0380821115620001ad57620001ad620002ff565b604051601f8301601f19908116603f01168101908282118183101715620001d857620001d8620002ff565b81604052838152602092508683858801011115620001f557600080fd5b600091505b83821015620002195785820183015181830184015290820190620001fa565b838211156200022b5760008385830101525b9695505050505050565b6000806000606084860312156200024b57600080fd5b83516001600160401b03808211156200026357600080fd5b62000271878388016200017e565b945060208601519150808211156200028857600080fd5b5062000297868287016200017e565b604086015190935090506001600160a01b0381168114620002b757600080fd5b809150509250925092565b600181811c90821680620002d757607f821691505b60208210811415620002f957634e487b7160e01b600052602260045260246000fd5b50919050565b634e487b7160e01b600052604160045260246000fd5b60805160601c611e60620003346000396000610cc70152611e606000f3fe608060405234801561001057600080fd5b50600436106101585760003560e01c806370a08231116100c3578063b5004f011161007c578063b5004f01146102df578063b88d4fde1461032c578063c87b56dd1461033f578063e985e9c514610352578063f2fde38b14610365578063f3e0c2901461037857600080fd5b806370a0823114610280578063715018a6146102a15780638da5cb5b146102a957806395d89b41146102b1578063a22cb465146102b9578063b2410c02146102cc57600080fd5b806342842e0e1161011557806342842e0e1461020e57806342966c6814610221578063432b225a146102345780634af66fa2146102475780636352211e1461025a5780636e667c351461026d57600080fd5b806301ffc9a71461015d57806306fdde0314610185578063081812fc1461019a578063095ea7b3146101c557806323b872dd146101da5780632a55205a146101ed575b600080fd5b61017061016b3660046118e4565b61038b565b60405190151581526020015b60405180910390f35b61018d6103d2565b60405161017c9190611b64565b6101ad6101a8366004611995565b610464565b6040516001600160a01b03909116815260200161017c565b6101d86101d33660046118ba565b6104f1565b005b6101d86101e836600461172f565b610602565b6102006101fb366004611a18565b610633565b60405161017c929190611aa3565b6101d861021c36600461172f565b61068d565b6101d861022f366004611995565b6106a8565b6101d86102423660046119d1565b610757565b6101d86102553660046119ae565b6107d1565b6101ad610268366004611995565b610830565b61018d61027b366004611995565b6108a7565b61029361028e3660046116e1565b610972565b60405190815260200161017c565b6101d86109f9565b6101ad610a34565b61018d610a43565b6101d86102c73660046117e7565b610a52565b6101d86102da366004611823565b610b13565b61030f6102ed366004611995565b600760205260009081526040902080546001909101546001600160a01b031682565b604080519283526001600160a01b0390911660208301520161017c565b6101d861033a36600461176b565b610c47565b61018d61034d366004611995565b610c79565b6101706103603660046116fc565b610d56565b6101d86103733660046116e1565b610d84565b610293610386366004611995565b610e24565b600061039682610e63565b806103b1575063152a902d60e11b6001600160e01b03198316145b806103cc57506001600160e01b03198216639d86bea560e01b145b92915050565b6060600180546103e190611d93565b80601f016020809104026020016040519081016040528092919081815260200182805461040d90611d93565b801561045a5780601f1061042f5761010080835404028352916020019161045a565b820191906000526020600020905b81548152906001019060200180831161043d57829003601f168201915b5050505050905090565b600061046f82610eb3565b6104d55760405162461bcd60e51b815260206004820152602c60248201527f4552433732313a20617070726f76656420717565727920666f72206e6f6e657860448201526b34b9ba32b73a103a37b5b2b760a11b60648201526084015b60405180910390fd5b506000908152600560205260409020546001600160a01b031690565b60006104fc82610830565b9050806001600160a01b0316836001600160a01b0316141561056a5760405162461bcd60e51b815260206004820152602160248201527f4552433732313a20617070726f76616c20746f2063757272656e74206f776e656044820152603960f91b60648201526084016104cc565b336001600160a01b038216148061058657506105868133610d56565b6105f35760405162461bcd60e51b815260206004820152603860248201527f4552433732313a20617070726f76652063616c6c6572206973206e6f74206f776044820152771b995c881b9bdc88185c1c1c9bdd995908199bdc88185b1b60421b60648201526084016104cc565b6105fd8383610ed0565b505050565b61060c3382610f3e565b6106285760405162461bcd60e51b81526004016104cc90611c4d565b6105fd838383611008565b6000828152600760209081526040808320815180830190925280548083526001909101546001600160a01b0316928201839052839290612710906106779087611d31565b6106819190611d0f565b92509250509250929050565b6105fd83838360405180602001604052806000815250610c47565b806106b281610eb3565b6106ce5760405162461bcd60e51b81526004016104cc90611bfe565b336106d7610a34565b6001600160a01b0316146106fd5760405162461bcd60e51b81526004016104cc90611bc9565b3361070783610830565b6001600160a01b03161461074a5760405162461bcd60e51b815260206004820152600a60248201526927b7363c9037bbb732b960b11b60448201526064016104cc565b61075382611196565b5050565b8161076181610eb3565b61077d5760405162461bcd60e51b81526004016104cc90611bfe565b33610786610a34565b6001600160a01b0316146107ac5760405162461bcd60e51b81526004016104cc90611bc9565b600083815260086020908152604090912083516107cb928501906115ce565b50505050565b816107db81610eb3565b6107f75760405162461bcd60e51b81526004016104cc90611bfe565b33610800610a34565b6001600160a01b0316146108265760405162461bcd60e51b81526004016104cc90611bc9565b6105fd828461121f565b6000818152600360205260408120546001600160a01b0316806103cc5760405162461bcd60e51b815260206004820152602960248201527f4552433732313a206f776e657220717565727920666f72206e6f6e657869737460448201526832b73a103a37b5b2b760b91b60648201526084016104cc565b6060816108b381610eb3565b6108cf5760405162461bcd60e51b81526004016104cc90611bfe565b600083815260086020526040902060010180546108eb90611d93565b80601f016020809104026020016040519081016040528092919081815260200182805461091790611d93565b80156109645780601f1061093957610100808354040283529160200191610964565b820191906000526020600020905b81548152906001019060200180831161094757829003601f168201915b505050505091505b50919050565b60006001600160a01b0382166109dd5760405162461bcd60e51b815260206004820152602a60248201527f4552433732313a2062616c616e636520717565727920666f7220746865207a65604482015269726f206164647265737360b01b60648201526084016104cc565b506001600160a01b031660009081526004602052604090205490565b33610a02610a34565b6001600160a01b031614610a285760405162461bcd60e51b81526004016104cc90611bc9565b610a32600061129a565b565b6000546001600160a01b031690565b6060600280546103e190611d93565b6001600160a01b038216331415610aa75760405162461bcd60e51b815260206004820152601960248201527822a9219b99189d1030b8383937bb32903a379031b0b63632b960391b60448201526064016104cc565b3360008181526006602090815260408083206001600160a01b03871680855290835292819020805460ff191686151590811790915590519081529192917f17307eab39ab6107e8899845ad3d59bd9653f200f220920489ca2b5937696c31910160405180910390a35050565b33610b1c610a34565b6001600160a01b031614610b425760405162461bcd60e51b81526004016104cc90611bc9565b6127108110610baa5760405162461bcd60e51b815260206004820152602e60248201527f526f79616c7479206e6565647320746f206265206c657373207468616e20313060448201526d303030206270732028313030252960901b60648201526084016104cc565b6000610bb560095490565b9050610bc187826112ea565b604080516060810182528581526020808201899052818301889052600084815260088252929092208151805192939192610bfe92849201906115ce565b506020828101518051610c1792600185019201906115ce565b5060408201518160020155905050610c3083838361140b565b610c3e600980546001019055565b50505050505050565b610c513383610f3e565b610c6d5760405162461bcd60e51b81526004016104cc90611c4d565b6107cb8484848461148e565b606081610c8581610eb3565b610ca15760405162461bcd60e51b81526004016104cc90611bfe565b600083815260086020526040908190209051633407f7a360e21b81526001600160a01b037f0000000000000000000000000000000000000000000000000000000000000000169163d01fde8c91610cfb9190600401611abc565b60006040518083038186803b158015610d1357600080fd5b505afa158015610d27573d6000803e3d6000fd5b505050506040513d6000823e601f3d908101601f19168201604052610d4f919081019061191e565b9392505050565b6001600160a01b03918216600090815260066020908152604080832093909416825291909152205460ff1690565b33610d8d610a34565b6001600160a01b031614610db35760405162461bcd60e51b81526004016104cc90611bc9565b6001600160a01b038116610e185760405162461bcd60e51b815260206004820152602660248201527f4f776e61626c653a206e6577206f776e657220697320746865207a65726f206160448201526564647265737360d01b60648201526084016104cc565b610e218161129a565b50565b600081610e3081610eb3565b610e4c5760405162461bcd60e51b81526004016104cc90611bfe565b505060009081526008602052604090206002015490565b60006001600160e01b031982166380ac58cd60e01b1480610e9457506001600160e01b03198216635b5e139f60e01b145b806103cc57506301ffc9a760e01b6001600160e01b03198316146103cc565b6000908152600360205260409020546001600160a01b0316151590565b600081815260056020526040902080546001600160a01b0319166001600160a01b0384169081179091558190610f0582610830565b6001600160a01b03167f8c5be1e5ebec7d5bd14f71427d1e84f3dd0314c0f7b2291e5b200ac8c7c3b92560405160405180910390a45050565b6000610f4982610eb3565b610faa5760405162461bcd60e51b815260206004820152602c60248201527f4552433732313a206f70657261746f7220717565727920666f72206e6f6e657860448201526b34b9ba32b73a103a37b5b2b760a11b60648201526084016104cc565b6000610fb583610830565b9050806001600160a01b0316846001600160a01b03161480610ff05750836001600160a01b0316610fe584610464565b6001600160a01b0316145b8061100057506110008185610d56565b949350505050565b826001600160a01b031661101b82610830565b6001600160a01b0316146110835760405162461bcd60e51b815260206004820152602960248201527f4552433732313a207472616e73666572206f6620746f6b656e2074686174206960448201526839903737ba1037bbb760b91b60648201526084016104cc565b6001600160a01b0382166110e55760405162461bcd60e51b8152602060048201526024808201527f4552433732313a207472616e7366657220746f20746865207a65726f206164646044820152637265737360e01b60648201526084016104cc565b6110f0600082610ed0565b6001600160a01b0383166000908152600460205260408120805460019290611119908490611d50565b90915550506001600160a01b0382166000908152600460205260408120805460019290611147908490611cf7565b909155505060008181526003602052604080822080546001600160a01b0319166001600160a01b038681169182179092559151849391871691600080516020611e0b83398151915291a4505050565b60006111a182610830565b90506111ae600083610ed0565b6001600160a01b03811660009081526004602052604081208054600192906111d7908490611d50565b909155505060008281526003602052604080822080546001600160a01b0319169055518391906001600160a01b03841690600080516020611e0b833981519152908390a45050565b6000818152600760205260409081902054905182917ffc9b1671d29577a4f427484232806ff985d95bb27e06baebe20c67ec4e74882391611261918691611aa3565b60405180910390a2600090815260076020526040902060010180546001600160a01b0319166001600160a01b0392909216919091179055565b600080546001600160a01b038381166001600160a01b0319831681178455604051919092169283917f8be0079c531659141344cd1fd0a4f28419497f9722a3daafe3b4186f6b6457e09190a35050565b6001600160a01b0382166113405760405162461bcd60e51b815260206004820181905260248201527f4552433732313a206d696e7420746f20746865207a65726f206164647265737360448201526064016104cc565b61134981610eb3565b156113965760405162461bcd60e51b815260206004820152601c60248201527f4552433732313a20746f6b656e20616c7265616479206d696e7465640000000060448201526064016104cc565b6001600160a01b03821660009081526004602052604081208054600192906113bf908490611cf7565b909155505060008181526003602052604080822080546001600160a01b0319166001600160a01b0386169081179091559051839290600080516020611e0b833981519152908290a45050565b807ffc9b1671d29577a4f427484232806ff985d95bb27e06baebe20c67ec4e748823848460405161143d929190611aa3565b60405180910390a26040805180820182529283526001600160a01b03938416602080850191825260009384526007905291209151825551600190910180546001600160a01b03191691909216179055565b611499848484611008565b6114a5848484846114c1565b6107cb5760405162461bcd60e51b81526004016104cc90611b77565b60006001600160a01b0384163b156115c357604051630a85bd0160e11b81526001600160a01b0385169063150b7a0290611505903390899088908890600401611a66565b602060405180830381600087803b15801561151f57600080fd5b505af192505050801561154f575060408051601f3d908101601f1916820190925261154c91810190611901565b60015b6115a9573d80801561157d576040519150601f19603f3d011682016040523d82523d6000602084013e611582565b606091505b5080516115a15760405162461bcd60e51b81526004016104cc90611b77565b805181602001fd5b6001600160e01b031916630a85bd0160e11b149050611000565b506001949350505050565b8280546115da90611d93565b90600052602060002090601f0160209004810192826115fc5760008555611642565b82601f1061161557805160ff1916838001178555611642565b82800160010185558215611642579182015b82811115611642578251825591602001919060010190611627565b5061164e929150611652565b5090565b5b8082111561164e5760008155600101611653565b600061167a61167584611ccf565b611c9e565b905082815283838301111561168e57600080fd5b828260208301376000602084830101529392505050565b80356001600160a01b03811681146116bc57600080fd5b919050565b600082601f8301126116d257600080fd5b610d4f83833560208501611667565b6000602082840312156116f357600080fd5b610d4f826116a5565b6000806040838503121561170f57600080fd5b611718836116a5565b9150611726602084016116a5565b90509250929050565b60008060006060848603121561174457600080fd5b61174d846116a5565b925061175b602085016116a5565b9150604084013590509250925092565b6000806000806080858703121561178157600080fd5b61178a856116a5565b9350611798602086016116a5565b925060408501359150606085013567ffffffffffffffff8111156117bb57600080fd5b8501601f810187136117cc57600080fd5b6117db87823560208401611667565b91505092959194509250565b600080604083850312156117fa57600080fd5b611803836116a5565b91506020830135801515811461181857600080fd5b809150509250929050565b60008060008060008060c0878903121561183c57600080fd5b611845876116a5565b9550602087013567ffffffffffffffff8082111561186257600080fd5b61186e8a838b016116c1565b965060408901359550606089013591508082111561188b57600080fd5b5061189889828a016116c1565b9350506118a7608088016116a5565b915060a087013590509295509295509295565b600080604083850312156118cd57600080fd5b6118d6836116a5565b946020939093013593505050565b6000602082840312156118f657600080fd5b8135610d4f81611df4565b60006020828403121561191357600080fd5b8151610d4f81611df4565b60006020828403121561193057600080fd5b815167ffffffffffffffff81111561194757600080fd5b8201601f8101841361195857600080fd5b805161196661167582611ccf565b81815285602083850101111561197b57600080fd5b61198c826020830160208601611d67565b95945050505050565b6000602082840312156119a757600080fd5b5035919050565b600080604083850312156119c157600080fd5b82359150611726602084016116a5565b600080604083850312156119e457600080fd5b82359150602083013567ffffffffffffffff811115611a0257600080fd5b611a0e858286016116c1565b9150509250929050565b60008060408385031215611a2b57600080fd5b50508035926020909101359150565b60008151808452611a52816020860160208601611d67565b601f01601f19169290920160200192915050565b6001600160a01b0385811682528416602082015260408101839052608060608201819052600090611a9990830184611a3a565b9695505050505050565b6001600160a01b03929092168252602082015260400190565b600060208083526000845481600182811c915080831680611ade57607f831692505b858310811415611afc57634e487b7160e01b85526022600452602485fd5b878601838152602001818015611b195760018114611b2a57611b55565b60ff19861682528782019650611b55565b60008b81526020902060005b86811015611b4f57815484820152908501908901611b36565b83019750505b50949998505050505050505050565b602081526000610d4f6020830184611a3a565b60208082526032908201527f4552433732313a207472616e7366657220746f206e6f6e20455243373231526560408201527131b2b4bb32b91034b6b83632b6b2b73a32b960711b606082015260800190565b6020808252818101527f4f776e61626c653a2063616c6c6572206973206e6f7420746865206f776e6572604082015260600190565b6020808252602f908201527f4552433732314d657461646174613a2055524920717565727920666f72206e6f60408201526e3732bc34b9ba32b73a103a37b5b2b760891b606082015260800190565b60208082526031908201527f4552433732313a207472616e736665722063616c6c6572206973206e6f74206f6040820152701ddb995c881b9bdc88185c1c1c9bdd9959607a1b606082015260800190565b604051601f8201601f1916810167ffffffffffffffff81118282101715611cc757611cc7611dde565b604052919050565b600067ffffffffffffffff821115611ce957611ce9611dde565b50601f01601f191660200190565b60008219821115611d0a57611d0a611dc8565b500190565b600082611d2c57634e487b7160e01b600052601260045260246000fd5b500490565b6000816000190483118215151615611d4b57611d4b611dc8565b500290565b600082821015611d6257611d62611dc8565b500390565b60005b83811015611d82578181015183820152602001611d6a565b838111156107cb5750506000910152565b600181811c90821680611da757607f821691505b6020821081141561096c57634e487b7160e01b600052602260045260246000fd5b634e487b7160e01b600052601160045260246000fd5b634e487b7160e01b600052604160045260246000fd5b6001600160e01b031981168114610e2157600080fdfeddf252ad1be2c89b69c2b068fc378daa952ba7f163c4a11628f55a4df523b3efa264697066735822122034c6211ccf6ce1c921019adfdceaab9e88048532a89b0a9cfb09c77b7c3b37d364736f6c63430008060033",
  "devdoc": {
    "kind": "dev",
    "methods": {
      "approve(address,uint256)": {
        "details": "See {IERC721-approve}."
      },
      "balanceOf(address)": {
        "details": "See {IERC721-balanceOf}."
      },
      "burn(uint256)": {
        "params": {
          "tokenId": "Token ID to burn"
        }
      },
      "constructor": {
        "details": "Sets up ERC721 Token",
        "params": {
          "name": "name of token",
          "symbol": "_sharedMetadata address of metadata interface"
        }
      },
      "contentHash(uint256)": {
        "params": {
          "tokenId": "token id to retrieve hash for"
        }
      },
      "contentURI(uint256)": {
        "params": {
          "tokenId": "token id to retrieve content for"
        }
      },
      "getApproved(uint256)": {
        "details": "See {IERC721-getApproved}."
      },
      "isApprovedForAll(address,address)": {
        "details": "See {IERC721-isApprovedForAll}."
      },
      "mint(address,string,bytes32,string,address,uint256)": {
        "details": "Creates a new token for `to`. Its token ID will be automatically assigned (and available on the emitted {IERC721-Transfer} event), and the token URI autogenerated based on the base URI passed at construction. See {ERC721-_mint}. Requirements: - the caller must have the `MINTER_ROLE`."
      },
      "name()": {
        "details": "See {IERC721Metadata-name}."
      },
      "owner()": {
        "details": "Returns the address of the current owner."
      },
      "ownerOf(uint256)": {
        "details": "See {IERC721-ownerOf}."
      },
      "renounceOwnership()": {
        "details": "Leaves the contract without owner. It will not be possible to call `onlyOwner` functions anymore. Can only be called by the current owner. NOTE: Renouncing ownership will leave the contract without an owner, thereby removing any functionality that is only available to the owner."
      },
      "royaltyInfo(uint256,uint256)": {
        "params": {
          "salePrice": "- the sale price of the NFT asset specified by _tokenId",
          "tokenId": "- the NFT asset queried for royalty information"
        },
        "returns": {
          "receiver": "- address of who should be sent the royalty payment",
          "royaltyAmount": "- the royalty payment amount for _salePrice"
        }
      },
      "safeTransferFrom(address,address,uint256)": {
        "details": "See {IERC721-safeTransferFrom}."
      },
      "safeTransferFrom(address,address,uint256,bytes)": {
        "details": "See {IERC721-safeTransferFrom}."
      },
      "setApprovalForAll(address,bool)": {
        "details": "See {IERC721-setApprovalForAll}."
      },
      "setRoyaltyPayoutAddressForToken(uint256,address)": {
        "params": {
          "newAddress": "new address to recieve royalty payout on-chain",
          "tokenId": "token id to set royalty payout for"
        }
      },
      "supportsInterface(bytes4)": {
        "params": {
          "interfaceId": "interface id to see what is supported"
        }
      },
      "symbol()": {
        "details": "See {IERC721Metadata-symbol}."
      },
      "tokenURI(uint256)": {
        "params": {
          "tokenId": "token id to get uri for"
        }
      },
      "transferFrom(address,address,uint256)": {
        "details": "See {IERC721-transferFrom}."
      },
      "transferOwnership(address)": {
        "details": "Transfers ownership of the contract to a new account (`newOwner`). Can only be called by the current owner."
      },
      "updateMetadataContent(uint256,string)": {
        "params": {
          "newMetadataContent": "new metadata content json string to update",
          "tokenId": "token id to update the metadata for"
        }
      }
    },
    "version": 1
  },
  "userdoc": {
    "kind": "user",
    "methods": {
      "burn(uint256)": {
        "notice": "Only owner of token can burn."
      },
      "supportsInterface(bytes4)": {
        "notice": "Interface ERC165 spec calls"
      },
      "updateMetadataContent(uint256,string)": {
        "notice": "Updates the metadata content to a new string for new schemas / adding licenses and metadata uri updates Only callable by the contract owner."
      }
    },
    "version": 1
  },
  "storageLayout": {
    "storage": [
      {
        "astId": 210,
        "contract": "contracts/MatthewBallMinting.sol:MatthewBallMinting",
        "label": "_owner",
        "offset": 0,
        "slot": "0",
        "type": "t_address"
      },
      {
        "astId": 354,
        "contract": "contracts/MatthewBallMinting.sol:MatthewBallMinting",
        "label": "_name",
        "offset": 0,
        "slot": "1",
        "type": "t_string_storage"
      },
      {
        "astId": 356,
        "contract": "contracts/MatthewBallMinting.sol:MatthewBallMinting",
        "label": "_symbol",
        "offset": 0,
        "slot": "2",
        "type": "t_string_storage"
      },
      {
        "astId": 360,
        "contract": "contracts/MatthewBallMinting.sol:MatthewBallMinting",
        "label": "_owners",
        "offset": 0,
        "slot": "3",
        "type": "t_mapping(t_uint256,t_address)"
      },
      {
        "astId": 364,
        "contract": "contracts/MatthewBallMinting.sol:MatthewBallMinting",
        "label": "_balances",
        "offset": 0,
        "slot": "4",
        "type": "t_mapping(t_address,t_uint256)"
      },
      {
        "astId": 368,
        "contract": "contracts/MatthewBallMinting.sol:MatthewBallMinting",
        "label": "_tokenApprovals",
        "offset": 0,
        "slot": "5",
        "type": "t_mapping(t_uint256,t_address)"
      },
      {
        "astId": 374,
        "contract": "contracts/MatthewBallMinting.sol:MatthewBallMinting",
        "label": "_operatorApprovals",
        "offset": 0,
        "slot": "6",
        "type": "t_mapping(t_address,t_mapping(t_address,t_bool))"
      },
      {
        "astId": 2686,
        "contract": "contracts/MatthewBallMinting.sol:MatthewBallMinting",
        "label": "royalities",
        "offset": 0,
        "slot": "7",
        "type": "t_mapping(t_uint256,t_struct(RoyaltyInfo)2681_storage)"
      },
      {
        "astId": 2395,
        "contract": "contracts/MatthewBallMinting.sol:MatthewBallMinting",
        "label": "tokenInfo",
        "offset": 0,
        "slot": "8",
        "type": "t_mapping(t_uint256,t_struct(TokenInfo)2385_storage)"
      },
      {
        "astId": 2403,
        "contract": "contracts/MatthewBallMinting.sol:MatthewBallMinting",
        "label": "_tokenIdTracker",
        "offset": 0,
        "slot": "9",
        "type": "t_struct(Counter)1630_storage"
      }
    ],
    "types": {
      "t_address": {
        "encoding": "inplace",
        "label": "address",
        "numberOfBytes": "20"
      },
      "t_bool": {
        "encoding": "inplace",
        "label": "bool",
        "numberOfBytes": "1"
      },
      "t_bytes32": {
        "encoding": "inplace",
        "label": "bytes32",
        "numberOfBytes": "32"
      },
      "t_mapping(t_address,t_bool)": {
        "encoding": "mapping",
        "key": "t_address",
        "label": "mapping(address => bool)",
        "numberOfBytes": "32",
        "value": "t_bool"
      },
      "t_mapping(t_address,t_mapping(t_address,t_bool))": {
        "encoding": "mapping",
        "key": "t_address",
        "label": "mapping(address => mapping(address => bool))",
        "numberOfBytes": "32",
        "value": "t_mapping(t_address,t_bool)"
      },
      "t_mapping(t_address,t_uint256)": {
        "encoding": "mapping",
        "key": "t_address",
        "label": "mapping(address => uint256)",
        "numberOfBytes": "32",
        "value": "t_uint256"
      },
      "t_mapping(t_uint256,t_address)": {
        "encoding": "mapping",
        "key": "t_uint256",
        "label": "mapping(uint256 => address)",
        "numberOfBytes": "32",
        "value": "t_address"
      },
      "t_mapping(t_uint256,t_struct(RoyaltyInfo)2681_storage)": {
        "encoding": "mapping",
        "key": "t_uint256",
        "label": "mapping(uint256 => struct RoyaltyConfig.RoyaltyInfo)",
        "numberOfBytes": "32",
        "value": "t_struct(RoyaltyInfo)2681_storage"
      },
      "t_mapping(t_uint256,t_struct(TokenInfo)2385_storage)": {
        "encoding": "mapping",
        "key": "t_uint256",
        "label": "mapping(uint256 => struct MatthewBallMinting.TokenInfo)",
        "numberOfBytes": "32",
        "value": "t_struct(TokenInfo)2385_storage"
      },
      "t_string_storage": {
        "encoding": "bytes",
        "label": "string",
        "numberOfBytes": "32"
      },
      "t_struct(Counter)1630_storage": {
        "encoding": "inplace",
        "label": "struct Counters.Counter",
        "members": [
          {
            "astId": 1629,
            "contract": "contracts/MatthewBallMinting.sol:MatthewBallMinting",
            "label": "_value",
            "offset": 0,
            "slot": "0",
            "type": "t_uint256"
          }
        ],
        "numberOfBytes": "32"
      },
      "t_struct(RoyaltyInfo)2681_storage": {
        "encoding": "inplace",
        "label": "struct RoyaltyConfig.RoyaltyInfo",
        "members": [
          {
            "astId": 2678,
            "contract": "contracts/MatthewBallMinting.sol:MatthewBallMinting",
            "label": "bps",
            "offset": 0,
            "slot": "0",
            "type": "t_uint256"
          },
          {
            "astId": 2680,
            "contract": "contracts/MatthewBallMinting.sol:MatthewBallMinting",
            "label": "receiver",
            "offset": 0,
            "slot": "1",
            "type": "t_address"
          }
        ],
        "numberOfBytes": "64"
      },
      "t_struct(TokenInfo)2385_storage": {
        "encoding": "inplace",
        "label": "struct MatthewBallMinting.TokenInfo",
        "members": [
          {
            "astId": 2380,
            "contract": "contracts/MatthewBallMinting.sol:MatthewBallMinting",
            "label": "metadataContent",
            "offset": 0,
            "slot": "0",
            "type": "t_string_storage"
          },
          {
            "astId": 2382,
            "contract": "contracts/MatthewBallMinting.sol:MatthewBallMinting",
            "label": "contentUri",
            "offset": 0,
            "slot": "1",
            "type": "t_string_storage"
          },
          {
            "astId": 2384,
            "contract": "contracts/MatthewBallMinting.sol:MatthewBallMinting",
            "label": "contentHash",
            "offset": 0,
            "slot": "2",
            "type": "t_bytes32"
          }
        ],
        "numberOfBytes": "96"
      },
      "t_uint256": {
        "encoding": "inplace",
        "label": "uint256",
        "numberOfBytes": "32"
      }
    }
  }
}